:020000040800F2
:1000000000200020C9050008150600081506000894
:1000100000000000000000000000000000000000E0
:1000200000000000000000000000000015060008AD
:10003000000000000000000015060008150600087A
:100040001506000815060008150600081506000824
:100050001506000815060008150600081506000814
:100060001506000815060008150600081506000804
:1000700015060008150600081506000815060008F4
:100080001506000815060008000000001506000807
:1000900015060008150600081506000815060008D4
:1000A00015060008150600081506000815060008C4
:1000B00035030008000000001506000800000000DD
:1000C0005FF808F180B588B000AF78600023FB616D
:1000D0000023BB6100237B6100233B610023FB60A5
:1000E000654B5A680C231340FB61FB69042B07D056
:1000F000082B09D0002B30D17B68604A1A6030E0B1
:100100007B685E4A1A602CE05B4B5A68F0239B03C5
:100110001340BB61584B5A6880235B0213407B61DC
:10012000BB699B0C0233BB617B69002B05D1BB69AA
:10013000534A5A437B681A6013E04F4BDA6A0F2325
:10014000134001333B614D48396900F06BFD031CDE
:10015000BA695A437B681A6003E07B68474A1A60B1
:10016000C046454B5A68F0231340FB61FB691B09ED
:10017000FB61444AFB69D3181B78DBB2FB607B68E8
:100180001A68FB68DA407B685A603B4B5A68E02388
:10019000DB001340FB61FB691B0AFB61394AFB6909
:1001A000D3181B78DBB2FB607B685A68FB68DA40C7
:1001B0007B689A60304B1A6B80235B00134003D13D
:1001C0007B68314ADA6010E02B4B5A688023DB01F0
:1001D000134005D17B689B685A087B68DA6004E0AD
:1001E0007B689B689A087B68DA60234B1A6B402314
:1001F000134003D17B68254A1A6103E07B688022A3
:1002000012021A611C4B1A6B1023134003D17B6836
:100210001A4A5A6103E07B681A687B685A61164B78
:100220001A6B0323134004D17B689A687B689A6138
:100230001EE0114B1A6B03231340012B04D17B6882
:100240001A687B689A6113E00B4B1A6B0323134007
:10025000022B04D17B68802212029A6108E0064BCF
:100260001A6B03231340032B02D17B68034A9A6164
:10027000BD4608B080BDC0460010024000127A00A2
:1002800000093D0000000020809FD5001280000082
:1002900080B582B000AF78600A1CFB1C1A70FB1C92
:1002A0001B78002B06D0084B074A51697A680A432D
:1002B0005A6106E0044B044A52697968C9430A400E
:1002C0005A61BD4602B080BD0010024080B582B0C8
:1002D00000AF78600A1CFB1C1A70FB1C1B78002BFB
:1002E00006D0084B074AD1697A680A43DA6106E00A
:1002F000044B044AD2697968C9430A40DA61BD46B1
:1003000002B080BD0010024080B582B000AF021C78
:10031000FB1D1A70064BFA1D1278111C1F220A4091
:100320000121081C9040021C1A60BD4602B080BD2D
:1003300000E100E080B500AFC0460E4B181C202144
:1003400000F052FC031C002BF7D00A4B181C00F0E5
:10035000FBFB031C074A101C191C00F0E3FBC04602
:10036000044B181C802100F03FFC031C002BF7D02D
:10037000BD4680BD0044004080B500AF80239B0295
:10038000181C0121FFF784FF80239B02181C012108
:10039000FFF79CFFBD4680BD80B582B000AF9023C3
:1003A000DB05181C0221012200F0A0FA9023DB05D6
:1003B000181C0321012200F099FA3B1C0C221A6040
:1003C0003B1C02221A713B1C00225A713B1C00226A
:1003D0009A713B1C0022DA719023DA053B1C101C39
:1003E000191C00F0CFF93B1C20221A603B1C012293
:1003F0001A713B1C00229A713B1C01225A719023F6
:10040000DA053B1C101C191C00F0BCF9BD4602B0FB
:1004100080BDC04680B586B000AF3B1C96229201DD
:100420001A603B1C00225A603B1C00229A603B1C55
:100430000022DA603B1C00225A613B1C0C221A612C
:100440000B4A3B1C101C191C00F09EFA084B181C90
:10045000012100F049FB064A064B101C191C012221
:1004600000F080FB1C20FFF74FFFBD4606B080BDAB
:10047000004400400501050080B582B000AF902324
:10048000DB05181C2021012200F018FA00237B60F4
:1004900002E07B6801337B607A680B4B9A42F8DD9F
:1004A0009023DB05181C2021002200F007FA00230E
:1004B0007B6002E07B6801337B607A68024B9A4282
:1004C000F8DDBD4602B080BD40420F0080B500AFF0
:1004D000FFF752FFFFF760FFFFF79CFF394B181C37
:1004E000542100F01FFBC046364B181C802100F041
:1004F0007BFB031C002BF7D0324B181C452100F06E
:1005000011FBC0462F4B181C802100F06DFB031C13
:10051000002BF7D02B4B181C532100F003FBC046D7
:10052000284B181C802100F05FFB031C002BF7D028
:10053000244B181C542100F0F5FAC046214B181C1E
:10054000802100F051FB031C002BF7D01D4B181C21
:10055000452100F0E7FAC0461A4B181C802100F034
:1005600043FB031C002BF7D0164B181C212100F075
:10057000D9FAC046134B181C802100F035FB031C30
:10058000002BF7D00F4B181C0A2100F0CBFAC04605
:100590000C4B181C802100F027FB031C002BF7D00C
:1005A000084B181C0D2100F0BDFAC046054B181C65
:1005B000802100F019FB031C002BF7D0FFF75CFF34
:1005C000FCE7C046004400400C488546002103E09B
:1005D0000B4B5B58435004310A480B4B42189A426C
:1005E000F6D30A4A02E0002313600432084B9A4211
:1005F000F9D300F011F8FFF769FFFEE700200020B3
:10060000C40C000800000020100000201000002092
:1006100010000020FEE7000080B500AF1B4B1B4A16
:10062000126801210A431A60184B184A5168184A87
:100630000A405A60154B154A1168164A0A401A605A
:10064000124B124A1168144A0A401A600F4B0F4AA3
:100650005168124A0A405A600C4B0C4AD26A0F2168
:100660008A43DA62094B094A116B0D4A0A401A6340
:10067000064B064A526B01218A435A63034B002200
:100680009A6000F00FF8BD4680BDC04600100240E1
:100690000CB8FFF8FFFFF6FEFFFFFBFFFFFFC0FFF8
:1006A000ACFEFFFF80B582B000AF00237B6000236B
:1006B0003B60314B304A1268802149020A431A607C
:1006C0002D4B1A6880239B0213403B607B680133EB
:1006D0007B603B68002B04D17A68A023DB019A423F
:1006E000EED1254B1A6880239B02134002D00123D0
:1006F0003B6001E000233B603B68012B38D11F4B7E
:1007000011221A601C4B1C4A52685A601A4B1A4A32
:1007100052685A60184B184A5168194A0A405A6080
:10072000154B154A5268882149030A435A60124BF7
:10073000114A1268802149040A431A60C0460E4BD0
:100740001A6880239B041340F9D00B4B0A4A526865
:1007500003218A435A60084B074A526802210A4320
:100760005A60C046044B5A680C231340082BF9D139
:10077000BD4602B080BDC0460010024000200240CD
:10078000FFFFC0FF80B586B000AF786039600023FE
:100790007B6100233B610023FB6000237B6185E0DC
:1007A0007B690122101C9840031C3B613B681B685D
:1007B0003A691340FB60FA683B699A4273D13B681F
:1007C0001B79012B03D03B681B79022B38D17B6846
:1007D0009B687A6952000321081C9040021CD24396
:1007E0001A407B689A607B689A683B685B79191C41
:1007F0007B695B00081C9840031C1A437B689A6065
:100800007B689B889BB27A6992B20121081C904058
:10081000021C92B2D24392B213409AB27B689A8081
:100820007B689B889AB23B689B79191C7B699BB259
:10083000081C9840031C9BB213439AB27B689A80B1
:100840007B681B687A6952000321081C9040021CD7
:10085000D2431A407B681A607B681A683B681B7930
:10086000191C7B695B00081C9840031C1A437B68B9
:100870001A607B68DB687A6992B252000321081C17
:100880009040021CD2431A407B68DA607B68DA68C9
:100890003B68DB79191C7B695B00081C9840031CD2
:1008A0001A437B68DA607B6901337B617B690F2BBC
:1008B00000D875E7BD4606B080BDC04680B582B0A1
:1008C00000AF7860BB1C19807B1C1A707B1C1B78E6
:1008D000002B04D0BB1C1A887B689A6103E07B68FC
:1008E000BA1C12881A85BD4602B080BD90B585B08D
:1008F00000AF7860BB1C19807B1C1A700023FB6062
:100900000023BB607B1C1A78BB1C198807230B4093
:100910009B00111C99400B1CFB60BB1C1B88DB0857
:100920009BB21A1CBB1C1B88DB089BB2191C7B6882
:1009300008318900CB58B91C08880721014089007B
:100940000F20041C8C40211CC94319407B680832CD
:100950009200D150BB1C1B88DB089BB21A1C7B6821
:1009600008329200D258FB681343BB60BB1C1B8843
:10097000DB089BB21A1C7B6808329200B968D15020
:10098000BD4605B090BDC04680B58CB000AF786064
:1009900039600023FB620023BB6200237B627B681B
:1009A0001B680122191C91430A1C7B681A607B6832
:1009B0005B687B627A6A474B13407B623B689B684B
:1009C0007A6A13437B627B687A6A5A607B681B6829
:1009D0007B627A6A404B13407B623B685A683B6893
:1009E000DB681A433B681B6913437A6A13437B62D3
:1009F0007B687A6A1A607B689B687B627A6A374B8D
:100A000013407B623B685B697A6A13437B627B6855
:100A10007A6A9A603B1C0833181CFFF753FB7A680C
:100A20002F4B9A4204D13B1C08339B69BB6203E005
:100A30003B1C08339B68BB627B681A6880231B02DF
:100A4000134014D0BB6A5A003B681B68101C191C69
:100A500000F0E8F8031CFB62BB6A5A003B681B68A5
:100A6000101C191C00F022F90B1C7B6210E03B6883
:100A70001B68B86A191C00F0D5F8031CFB623B68C0
:100A80001B68BA6A101C191C00F010F90B1C7B6261
:100A90003B681B685A087B6A9A4202D8FB6A01339A
:100AA000FB627B681A6880231B0213400AD0FA6A33
:100AB0000F2313405B087B62FA6A0A4B1A407B6A79
:100AC0001343FB62FB6A9AB27B689A81BD460CB005
:100AD00080BDC046FFCFFFFFF3E9FFFFFFFCFFFF34
:100AE00000380140F0FF000080B582B000AF7860B0
:100AF0000A1CFB1C1A70FB1C1B78002B06D07B68A1
:100B00001B6801221A437B681A6007E07B681B6838
:100B10000122191C91430A1C7B681A60BD4602B071
:100B200080BDC04680B582B000AF78600A1CBB1C97
:100B30001A80BB1C1B88DB05DB0D9AB27B681A850B
:100B4000BD4602B080BDC04680B582B000AF7860BF
:100B50007B689B8C9BB2DB05DB0D9BB2181CBD46F2
:100B600002B080BD80B588B000AFF860B960FB1DF1
:100B70001A700023BB6100237B6100233B610023CB
:100B8000FB61FB68FB61BB689BB21B0A9BB2BB614C
:100B9000BA68FF2313407B617B690122111C9940D5
:100BA0000B1C3B61BB69022B03D1FB690433FB6166
:100BB00005E0BB69032B02D1FB690833FB61FB1D18
:100BC0001B78002B06D0FB69FA6911683A690A4361
:100BD0001A6006E0FB69FA6912683969C9430A407C
:100BE0001A60BD4608B080BD80B584B000AF7860A3
:100BF00039603B1C0F3300221A707B68DB693A684E
:100C0000134004D03B1C0F3301221A7003E03B1C3D
:100C10000F3300221A703B1C0F331B78181CBD4683
:100C200004B080BD002934D00123002210B48842D2
:100C30002CD301242407A14204D2814202D209010B
:100C40001B01F8E7E400A14204D2814202D249002C
:100C50005B00F8E7884201D3401A1A434C08A042CF
:100C600002D3001B5C0822438C08A04202D3001B65
:100C70009C082243CC08A04202D3001BDC0822437C
:100C8000002803D01B0901D00909E3E7101C10BCA0
:100C90007047002801D00020C04307B4024802A1D9
:100CA0004018029003BDC046190000000029F0D092
:100CB00003B5FFF7B9FF0EBC4243891A1847C04677
:040CC0007047C04673
:100CC40000000000010203040102030406070809EE
:0400000508000000EF
:00000001FF
